{
  "_format": "hh-sol-artifact-1",
  "contractName": "NFTFaucet",
  "sourceName": "contracts/NFTFaucet.sol",
  "abi": [
    {
      "inputs": [
        {
          "internalType": "address",
          "name": "_multiFaucetContract",
          "type": "address"
        }
      ],
      "stateMutability": "nonpayable",
      "type": "constructor"
    },
    {
      "inputs": [
        {
          "internalType": "address",
          "name": "_dest",
          "type": "address"
        },
        {
          "internalType": "uint256",
          "name": "_amount",
          "type": "uint256"
        }
      ],
      "name": "mint",
      "outputs": [],
      "stateMutability": "nonpayable",
      "type": "function"
    }
  ],
  "bytecode": "0x608060405234801561001057600080fd5b506040516104ae3803806104ae8339818101604052810190610032919061008d565b806000806101000a81548173ffffffffffffffffffffffffffffffffffffffff021916908373ffffffffffffffffffffffffffffffffffffffff160217905550506100ff565b600081519050610087816100e8565b92915050565b60006020828403121561009f57600080fd5b60006100ad84828501610078565b91505092915050565b60006100c1826100c8565b9050919050565b600073ffffffffffffffffffffffffffffffffffffffff82169050919050565b6100f1816100b6565b81146100fc57600080fd5b50565b6103a08061010e6000396000f3fe608060405234801561001057600080fd5b506004361061002b5760003560e01c806340c10f1914610030575b600080fd5b61004a600480360381019061004591906101e5565b61004c565b005b600a811115610090576040517f08c379a0000000000000000000000000000000000000000000000000000000008152600401610087906102a6565b60405180910390fd5b60018114156101295760008054906101000a900473ffffffffffffffffffffffffffffffffffffffff1673ffffffffffffffffffffffffffffffffffffffff16636a627842836040518263ffffffff1660e01b81526004016100f29190610262565b600060405180830381600087803b15801561010c57600080fd5b505af1158015610120573d6000803e3d6000fd5b505050506101b7565b60008054906101000a900473ffffffffffffffffffffffffffffffffffffffff1673ffffffffffffffffffffffffffffffffffffffff1663248b71fc83836040518363ffffffff1660e01b815260040161018492919061027d565b600060405180830381600087803b15801561019e57600080fd5b505af11580156101b2573d6000803e3d6000fd5b505050505b5050565b6000813590506101ca8161033c565b92915050565b6000813590506101df81610353565b92915050565b600080604083850312156101f857600080fd5b6000610206858286016101bb565b9250506020610217858286016101d0565b9150509250929050565b61022a816102d7565b82525050565b600061023d6013836102c6565b915061024882610313565b602082019050919050565b61025c81610309565b82525050565b60006020820190506102776000830184610221565b92915050565b60006040820190506102926000830185610221565b61029f6020830184610253565b9392505050565b600060208201905081810360008301526102bf81610230565b9050919050565b600082825260208201905092915050565b60006102e2826102e9565b9050919050565b600073ffffffffffffffffffffffffffffffffffffffff82169050919050565b6000819050919050565b7f4d6178696d756d206c696d697420697320313000000000000000000000000000600082015250565b610345816102d7565b811461035057600080fd5b50565b61035c81610309565b811461036757600080fd5b5056fea26469706673582212201e922375103237a06b61acb3304a4f874e45bd7433ef8a335ba36c5e7f435e8964736f6c63430008010033",
  "linkReferences": {},
  "deployedLinkReferences": {}
}